:02000000FD2BD6
:10075E0083168501831285010230A2008630A10026
:10076E009930A000A00BB92BA10BB92BA20BB92B62
:10077E00831205161530A2004B30A100D130A00017
:10078E00A00BC72BA10BC72BA20BC72B00008312EC
:10079E0005120330A2008A30A1005630A000A00B33
:1007AE00D62BA10BD62BA20BD62BDD2B063083120C
:1007BE00A2001330A100B130A000A00BE42BA10BBE
:1007CE00E42BA20BE42BEB2B831205150630A200B3
:1007DE001330A100B130A000A00BF32BA10BF32B13
:1007EE00A20BF32BFA2B83120511DD2B8301AF2BFA
:02400E00D431AB
:00000001FF
